:020000040000FA
:10000000031E080086015F30A000213084008001BB
:10001000840AA00B07282F2824208400073984068F
:100020000310840C840C840C041A841704128419A1
:10003000841684118A01820701340234043408349E
:10004000103420344034803407398A018207303438
:100050003134323433343434353436343734073091
:10006000B6001F30F2267830B6008630F2263830DF
:10007000B6008530F2265830B6008130F226343092
:100080009827E8260330B6000530F226F101F0018A
:100090001B30B7005830F726C8260330B300E830CD
:1000A000B2000330E300E830E2000330B700E8308C
:1000B000F726CE260130A200902680307D2703301F
:1000C00042273608A2009026A40100308A002408A6
:1000D000EC3E03188428143E6F20A2008428820777
:1000E0004F345034543420344134753474346F34C4
:1000F0004E346F347434633468346534723420346D
:10010000523435342E343534962624087D27522730
:100110003608A40000306D27031D922813305E2797
:100120000319652880307D2740304227023042275E
:100130003608A20090267030802700305E27031D0D
:10014000CD28A40100308A002408EF3E0318BE2801
:10015000113EAC20A200BE288207313420342D3459
:1001600020345334453454342034433455345434D7
:1001700020344434453450345434483496262408CA
:100180007D2752273608A40000306D27031DCC2898
:1001900010305E270319A2284129A40100308A00EB
:1001A0002408F23E0318E7280E3ED820A200E728D4
:1001B0008207313420342D342034443445345034D3
:1001C0005434483420343D34203430342E34962690
:1001D00024087D2752273608A40000306D27031D10
:1001E000F5280D305E270319CE2870308027273080
:1001F000B90010300E273608AF002F087D273030A9
:1002000042273608A20096262F087D272730B900FE
:10021000103025276E308727703080276E30912769
:1002200040276C3087276C3080270330B900E830D6
:100230000E273608B00030087D27303042273608B8
:10024000A200962630087D270330B900E830252724
:100250006E3087276C3080276E30912740276A30B8
:1002600087276A30802764300D273608B1003108AF
:100270007D27303042273608A20096262230A20081
:10028000962680307D2714304227023042273608D8
:10029000A2009026A40101308A002408F33E03182E
:1002A00063290D3E5521A200632982073234203490
:1002B0002D34203443345534543420344E344F34A8
:1002C000543443344834962624087D275227360870
:1002D000A40000306D27031D71290C305E2703191F
:1002E0004B2980307D275430422702304227360880
:1002F000A2009026A40101308A002408EF3E0318D2
:100300009729113E8521A200972982073334203492
:100310002D3420344A344F344734203445344C345F
:1003200045344334543452344F344434453496269F
:1003300024087D2752273608A40000306D27031DAE
:10034000A52910305E2703197B2980307D27403096
:100350004227023042273608A20090269F2601300D
:10036000AE00333098277D2700306327031D162AFF
:10037000353098277D2700306827031DD429353074
:1003800098277D2700306327031DBF292E087D276E
:1003900003306D27031DCD29F0292E087D2702305B
:1003A0006327031D062AFB29343098277D27003058
:1003B0006827031DB129343098277D270030632733
:1003C000031DDB292E087D2701305E27031DE92947
:1003D000062A2E087D2702306327031DF029FB29FA
:1003E0000130AE0080307D27403042270230422766
:1003F0003608A200102A0230AE0080307D2714306B
:100400004227023042273608A200102A0330AE00ED
:1004100080307D2754304227023042273608A20020
:1004200090260330B700E830F726B1290330B70033
:10043000E830F7269B262E087D2703306327031D0F
:10044000332B2E087D2702306327031DF72B013045
:10045000A2009026A40102308A002408F03E03186E
:10046000462A103E3522A200462A82072034203434
:100470002034533465347434203443345534543484
:1004800020344434453450345434483496262408B7
:100490007D2752273608A40000306D27031D542AFB
:1004A0000F305E2703192B2A80307D2740304227EA
:1004B000043042273608A2009026A40102308A00A8
:1004C0002408F43E0318752A0C3E6822A200752AFF
:1004D000820730342E3430343034303420346934B0
:1004E0006E346334683465347334962624087D276B
:1004F00052273608A40000306D27031D832A0B30D5
:100500005E2703195E2A80307D274030422706305F
:1005100042273608A20090269F260130AE00A60191
:10052000333098277D2700306827031DBF2A3330DA
:1005300098277D2700306327031D972A0130B700D5
:100540002C30F7261430A20090262E087D27033089
:100550006D27031DAE2A2608A800092B2E087D272B
:1005600002306D27031DBA2A2608A9000330AE0009
:10057000A601BF2A2608AA000230AE00A601353027
:1005800098277D2700306827031DD32A0330B70042
:100590002030F72626087D2700305E27031DE72A36
:1005A0000A30A600E72A343098277D2700306827D4
:1005B000031D902A0330B7002030F72626087D2738
:1005C00009306D27031DED2AFF30A600ED2A26080D
:1005D0007D2702303E273608A60026087D270130F9
:1005E00042273608A60080307D274030422705305C
:1005F00042272E0842273608A200902626087D278B
:10060000303042273608A20096261030A2009026ED
:10061000902A9B260330B7002030F7262A087D2732
:100620002730B900103025276A30872729087D2711
:100630000330B900E83025276C3087276A308027DF
:100640006C30912744276E30872728087D27643037
:1006500024276A3087276E3080276A309127442705
:10066000703087274C280130A20090260330B70055
:10067000E830F72686138030A20090262030A200B2
:10068000A401962624087D2752273608A4000030AE
:100690006D27031D4F2B13305E270319412B80302C
:1006A0007D27063042273608A2009026A401033099
:1006B0008A002408F83E03186A2B083E6123A20032
:1006C0006A2B82074A344F34473420344D346F3418
:1006D00064346534962624087D2752273608A40002
:1006E00000306D27031D782B07305E270319572B29
:1006F00080307D2740304227043042273608A20050
:100700009026A40103308A002408F43E0318992B94
:100710000C3E8C23A200992B82075A344534523464
:100720004F3420346F3472342034453458344934D3
:100730005434962624087D2752273608A40000301A
:100740006D27031DA72B0B305E270319822B8030EA
:100750007D2754304227123042273608A2009026C7
:100760002230A2009626D425343098277D270030E9
:100770006327031DCA2B353098277D270030632758
:10078000031DD22B333098277D2700306327031DAC
:10079000EA2BB42B86106230802701303E2762306E
:1007A0008727D92B86146230802701304227623098
:1007B0008727363098277D2701306327031DE42BD8
:1007C0000130B700C230F7260030A4270530D32609
:1007D000D425B42B363098277D2701306327031D9D
:1007E0004C280330E300E830E200D425B42B01307C
:1007F000A20090260330B700E830F726A4010430A9
:100800008A002408EC3E03181E2C143E0924A20082
:100810001E2C82074F345034543420344134753404
:1008200074346F344E346F34743463346834203429
:1008300052346534763435342E34353496262408D3
:100840007D2752273608A40000306D27031D2C2C6D
:1008500013305E270319FF2B80307D275430422749
:100860003608A2009026A40104308A002408ED3E38
:100870000318522C133E3E24A200522C82075034FF
:100880006F3477346534723420344F344E3420342E
:100890005034723465347334733420345A344534EC
:1008A00052344F34962624087D2752273608A40058
:1008B00000306D27031D602C12305E270319342C85
:1008C000333098277D2701306327031D602C0330C8
:1008D000B7002030F72680307D2740304227360889
:1008E000A2009026A40104308A002408EC3E0318DC
:1008F000922C143E7D24A200922C82075A34653437
:1009000072346F3469346E346734203465346C3437
:1009100065346334743472346F34643465342E3423
:100920002E342E34962624087D2752273608A4001C
:1009300000306D27031DA02C13305E270319732C84
:1009400080307D27143042273608A2009026A4016B
:1009500004308A002408EC3E0318C72C143EB2244D
:10096000A200C72C820753346534743420344434D5
:1009700065347034743468342034433475347434DA
:10098000203444346534703474346834203496260A
:1009900024087D2752273608A40000306D27031D48
:1009A000D52C13305E270319A82C80307D275430B6
:1009B00042273608A20090262030A200962630302A
:1009C000A20096262E30A20096262F087D273030D2
:1009D00042273608A200962630087D27303042276D
:1009E0003608A200962631087D2730304227360887
:1009F000A20096262230A20096262030A200A40152
:100A0000962624087D2752273608A40000306D273B
:100A1000031D0E2D0C305E270319002D86140530A2
:100A2000F626061186130230B7008A30F72600300A
:100A3000A4270530D3260530EF26A00043309827A1
:100A40007D2701306327031D132D80307D27403023
:100A500042273608A200902686140330E300E830CF
:100A6000E20080307D27403042273608A2009026E1
:100A70002030A200A401962624087D27522736089C
:100A8000A40000306D27031D492D13305E27031984
:100A90003B2D80307D27543042270B3042273608CB
:100AA000A2009026A40105308A002408F93E03180C
:100AB000652D073E5D25A200652D820777346134E0
:100AC0006934743469346E346734962624087D277B
:100AD00052273608A40000306D27031D732D063001
:100AE0005E270319532D333098277D270130632764
:100AF000031D732D06112230A20096260530EF2625
:100B0000A00020087D27183037273608AC002C08B5
:100B10007D2700306327031D7E2D433098277D27D6
:100B200001306327031DA02D86106230802701301D
:100B30003E27623087270030A4270530D326B42D06
:100B400086100030A4270530D32686140030A42751
:100B50000530D32662308027013042276230872754
:100B60000030A4270530D3266308E5006208E400BE
:100B7000623080270330B900E8306E27031DC72D8F
:100B80006230802732309127402764308727D42570
:100B900068308027703091276F27031D7E2D03302A
:100BA000B700E830F7263B2B80307D2754304227B2
:100BB0000B3042273608A20090266230802703308F
:100BC000B900E8306E27031DF02D623080273230E7
:100BD00091274027643087272030A2009626FA2DDF
:100BE00032308027623091274027643087272D30AC
:100BF000A20096263030A20096262E30A20096261D
:100C000064308027083024276A3087276A3080279D
:100C10000A300D276C30872764308027093024275D
:100C20006A3087276A30802764300D276E30872727
:100C30006C3080276E3091274427663087276430D8
:100C400080276630912744276830872768308027BF
:100C50000A30242768308727683080272730B9007A
:100C600010300E273608A60026087D273030422790
:100C70003608A200962626087D272730B9001030B6
:100C800025276A308727683080276A3091274027D8
:100C90006C3087276C3080270330B900E8300E278E
:100CA0003608A70027087D27303042273608A200E3
:100CB000962627087D270330B900E83025276E30B7
:100CC00087276C3080276E30912740276A3087272E
:100CD0006A30802764300D273608A80028087D2751
:100CE000303042273608A200962628087D27643037
:100CF00024276E3087276A3080276E30912740275F
:100D00006C3087276C3080270A300D273608A90001
:100D100029087D27303042273608A2009626A92FC1
:100D20000130AB00A4260430F626A92FAB01A4267F
:100D30000430F626A92F0C30A2009026A92F0D30E2
:100D4000A2009026A92FD0262B08AD00AB262208A2
:100D5000AD00AB2608008B128B1381016400831653
:100D60005830810083120830AC00051081010B114E
:100D70000B1DB82E0B11AD0D0510031805140B1D1E
:100D8000BF2E0B11AC0BBB2E05140B1DC52EA92FAE
:100D900005150800051108008514080085100800D5
:100DA00007300427D02EB701B60050278E2703192D
:100DB000A92FA027EB26FF3A841380066400E02EBB
:100DC0000000B60A0319B70A031DDE2E80060800CC
:100DD0000C208004EB2EFF3A84178005A92F840095
:100DE0000008A92F840036088000A92FB701B6009B
:100DF000502764003708360403190800F730FF3E17
:100E0000031DFF2E5227F92E8316F83881050F395E
:100E1000810463000F308104A92FB901B80010309C
:100E2000BF00BE01BD010314B60DB70DBD0DBE0D53
:100E300056273D304527031C361056273D30361CBB
:100E40004527BF0B132FA92FB901B8003D308727C5
:100E5000B701B6013E083D040319A92F0310BE0CCB
:100E6000BD0C031844270310B80DB90D2A2FB90182
:100E7000B8003808B6053908B705A92FB901B80078
:100E80005627442FB901B80036308400380880074F
:100E90003908840F00000318013E031C8007A92FA6
:100EA000B709B609B60A0319B70A08005B27B80ADA
:100EB0000319B90AA92FB909B809A92FB901B800AE
:100EC00072270139A92FB901B80072270239A92F59
:100ED000B901B80072270539A92FB901B8007227E6
:100EE0000439A92F39083702031D7A2F3808360232
:100EF00003190234031C04340134B701B600A92FCE
:100F000084000008B600840A0008B700A92F8400F6
:100F100036088000840A37088000A92F3708360475
:100F2000080084000008B800840A0008B900A92F4E
:100F30000D20BD000005841B3D060319003401345B
:100F40003B0884003A08080024200D20BA00040859
:100F5000BB00831264000800FF3FFF3FFF3FFF3FDD
:100F6000FF3FFF3FFF3FFF3FFF3FFF3FFF3FFF3F91
:100F7000FF3FFF3FFF3FFF3FFF3FFF3FFF3FFF3F81
:100F8000FF3FFF3FFF3FFF3FFF3FFF3FFF3FFF3F71
:100F9000FF3FFF3FFF3FFF3FFF3FFF3FFF3FFF3F61
:100FA000FF3FFF3FFF3FFF3FFF3FFF3FFF3FFF3F51
:100FB000FF3FFF3FFF3FFF3FFF3FFF3FFF3FFF3F41
:100FC000FF3FFF3FFF3FFF3FFF3FFF3FFF3FFF3F31
:100FD000FF3FFF3FFF3FFF3FFF3FFF3FFF3FFF3F21
:100FE000FF3FFF3FFF3FFF3FFF3FFF3FFF3FFF3F11
:100FF000FF3FFF3FFF3FFF3FFF3FFF3FFF3FFF3F01
:02400E00023F6F
:10420000FF00FF00FF00FF00FF00FF00FF00FF00B6
:10421000FF00FF00FF00FF00FF00FF00FF00FF00A6
:10422000FF00FF00FF00FF00FF00FF00FF00FF0096
:10423000FF00FF00FF00FF00FF00FF00FF00FF0086
:10424000FF00FF00FF00FF00FF00FF00FF00FF0076
:10425000FF00FF00FF00FF00FF00FF00FF00FF0066
:10426000FF00FF00FF00FF00FF00FF00FF00FF0056
:10427000FF00FF00FF00FF00FF00FF00FF00FF0046
:10428000FF00FF00FF00FF00FF00FF00FF00FF0036
:10429000FF00FF00FF00FF00FF00FF00FF00FF0026
:1042A000FF00FF00FF00FF00FF00FF00FF00FF0016
:1042B000FF00FF00FF00FF00FF00FF00FF00FF0006
:1042C000FF00FF00FF00FF00FF00FF00FF00FF00F6
:1042D000FF00FF00FF00FF00FF00FF00FF00FF00E6
:1042E000FF00FF00FF00FF00FF00FF00FF00FF00D6
:1042F000FF00FF00FF00FF00FF00FF00FF00FF00C6
:08400000FF3FFF3FFF3FFF3FC0
:00000001FF
