:020000040000FA
:100000009E281920B60015202008210403199928DC
:10001000932084133608800664000E280F28A00A57
:100020000319A10F0C2880069928FF3A8417800530
:100030009928A8000630A8190530840000308A00ED
:100040002808073982070134023404340834103494
:10005000203440348034840000089928A301A20091
:10006000FF30A207031CA307031C99280330A1003B
:10007000E6303C203028A101FB3EA000A109FF3062
:10008000031C4528A00703184228A0076400A10FFD
:10009000422800000800A20001305128A2000430CC
:1000A0005128A80023082102031D582822082002F5
:1000B000043003180130031902302805031DFF30F6
:1000C0009928A501A4011030A600210DA40DA50DAD
:1000D0002208A4022308031C230FA5020318772873
:1000E0002208A40723080318230FA5070310A00D57
:1000F000A10DA60B6528200899281030A800A101A1
:10010000A001A70CA60C031C8B282208A00723081B
:100110000318230FA107A10CA00CA50CA40CA80B7D
:10012000812824089928A009A109A00A0319A10A75
:1001300008008313031383126400080007309F0034
:10014000FF3086008316783086008312FF308500EA
:1001500083163830850058308100831203308500C3
:10016000FF308600C001C1010330A300E8308A01DE
:100170002F208A15A826E830CA000330CB00E830CB
:10018000C8000330C9000330A300E8308A012F20E3
:100190008A15AE260130CE008A1568268030CE0042
:1001A0008A156826D0016400143050028A110318A1
:1001B00001295008133C8A11031CFB288A11E320F3
:1001C000CE008A11FB2800308A00500882074F3485
:1001D0005034543420344134753474346F344E34D4
:1001E0006F34743463346834653472342034523478
:1001F00036342E3434348A157026D00A8A11031D01
:10020000D328C030CE008A156826D001640014308F
:1002100050028A11031834295008133C8A11031C18
:100220002E298A111621CE008A112E2901308A002A
:1002300050088207433448344F344F3453344534E4
:10024000203443344F344E344634493447345534E3
:1002500052344134543449344F344E348A15702664
:10026000D00A8A11031D06299430CE008A1568260B
:10027000D0016400133050028A1103186629500817
:10028000123C8A11031C60298A114921CE008A116F
:10029000602901308A0050088207313420342D341F
:1002A0002034453444344D3420344E346F34743467
:1002B000633468344334753474347434653472345C
:1002C0008A157026D00A8A11031D3929D430CE0030
:1002D0008A156826D0016400143050028A11031870
:1002E00099295008133C8A11031C93298A117B21F8
:1002F000CE008A11932901308A00500882073234D7
:1003000020342D342034453444344D3420344534A5
:100310007834743465346E34643420345234653443
:100320006134633468348A157026D00A8A11031D3B
:100330006B299430CE008A1568268A157C260130F8
:10034000DC0064008A11861DDC2964008A11861A8B
:10035000B72964008A11861EA92964005C08013C43
:100360008A110319B5298A11C9298A11CF29640074
:100370008A11061AA12964008A11061EBB2964008D
:100380005C08013C8A110319C7298A11C9298A11FD
:10039000CF290130DC009430CE008A11D5290230FB
:1003A000DC00D430CE008A11D5298A156826C830E1
:1003B0008A012E208A01A129C8308A012E208A159F
:1003C000772664005C08023C8A110319252F01304E
:1003D000CE008A1568268030CE008A156826D001A6
:1003E0006400133050028A1103181D2A5008123C71
:1003F0008A11031C172A8A110022CE008A11172A9B
:1004000002308A00500882074F345034543420346C
:10041000453444344D3420344E346F3474346334B2
:1004200068344334753474347434653472348A15E2
:100430007026D00A8A11031DF029C230CE008A1519
:1004400068264008A0004108A100A30100308A01ED
:100450004B208A11031D5A2AD0016400113050022A
:100460008A110318582A5008103C8A11031C522A7A
:100470008A113D22CE008A11522A02308A00500889
:100480008207313420342D342034533445345434ED
:1004900020344334553454342034443445345034B7
:1004A000543448348A157026D00A8A11031D2D2A27
:1004B0008A11DE2AD00164000E3050028A1103181E
:1004C000832A50080D3C8A11031C7D2A8A116B2255
:1004D000CE008A117D2A02308A005008820731340A
:1004E00020342D342034443445345034543448348A
:1004F00020343D34203430342E348A157026D00A0E
:100500008A11031D5B2A4008A0004108A100103099
:10051000A2002730A3008A016120D900303059079A
:10052000CE008A1570265908A600A7011030A20037
:100530002730A3008A017D20C6002508C700460891
:100540004002C4004708031C013E4102C5004408A4
:10055000A0004508A100E830A2000330A3008A01F2
:100560006120DA0030305A07CE008A1570265A080A
:10057000A600A701E830A2000330A3008A017D2075
:10058000C6002508C70046084402C2004708031CED
:10059000013E4502C3004208A0004308A1006430A8
:1005A000A200A3018A016120D80030305807CE0094
:1005B0008A1570262230CE008A1570269630CE001D
:1005C0008A156826D00164000D3050028A11031884
:1005D000142B50080C3C8A11031C0E2B8A11F32299
:0E05E000CE008A110E2B03308A005008002B2B
:100600008207323420342D3420344334553454346A
:1006100020344E344F345434433448348A157026D1
:10062000D00A8A11031DE32AD630CE008A15682627
:10063000D0016400113050028A110318442B500875
:10064000103C8A11031C3E2B8A112923CE008A11EB
:100650003E2B03308A0050088207333420342D3477
:1006600020344A344F344734203445344C344534F4
:100670004334543452344F34443445348A1570264C
:10068000D00A8A11031D192BC230CE008A156826A4
:100690008A157C260130DC0064008A11861D992BA6
:1006A00064008A11861A682B64008A11861E542BF6
:1006B000640003305C028A11031C602B8A11802BBA
:1006C00064005C08023C8A1103198C2B8A11862B6A
:1006D00064008A11061A4C2B64008A11061E6C2BCA
:1006E000640002305C028A110318782B8A118C2B6B
:1006F00064005C08023C8A110319802B8A11862B46
:100700000130DC00C230CE008A11902B0230DC00B8
:100710009630CE008A11902B0330DC00D630CE000C
:100720008A1568260330A300E8308A012F208A0149
:100730004C2B0330A300E8308A012F208A1577263E
:1007400064005C08033C8A110319AB2C64005C084C
:10075000023C8A1103195C2D0130CE008A156826EF
:10076000D0016400103050028A110318DB2B5008AE
:100770000F3C8A11031CD52B8A11C123CE008A118C
:10078000D52B03308A0050088207203420342034CF
:100790005334653474342034433455345434203461
:1007A000443445345034543448348A157026D00AC1
:1007B0008A11031DB12BC430CE008A156826D001E2
:1007C00064000C3050028A110318062C50080B3CB0
:1007D0008A11031C002C8A11F023CE008A11002CF0
:1007E00003308A005008820730342E3430343034DD
:1007F0003034203469346E3463346834653473348F
:100800008A157026D00A8A11031DE02BC630CE004F
:100810008A1568268A157C260130DC00D301640025
:100820008A1186193C2C64008A11861D132C013014
:10083000A3002C308A012F201430CE008A156826A0
:10084000640003305C028A11031C2A2C5308D50073
:100850008A11712C640002305C028A11031C372C4F
:100860005308D7000330DC00D3018A113C2C530815
:10087000D6000230DC00D30164008A11861A4D2CA8
:10088000C8308A012E206400013053028A110318F7
:100890005E2C0A30D3008A115E2C64008A11061A7D
:1008A0000F2CC8308A012E206400093053028A11AF
:1008B000031C602CFF30D3008A11602C0230D3025D
:1008C000D30AC5305C07CE008A156826303053073E
:1008D000CE008A1570261030CE008A1568268A014F
:1008E0000F2C8A157726C8308A012E205608A600BC
:1008F000A7011030A2002730A3008A017D20C2008A
:100900002508C3005708A600A701E830A20003305D
:10091000A3008A017D20C4002508C50042084407C1
:10092000C60043080318013E4507C7005508A60046
:10093000A7016430A200A3018A017D20C20025081E
:10094000C30046084207C00047080318013E43079A
:10095000C1008A01B9280130CE008A15682601300D
:10096000A300F4308A012F2086138030CE008A1530
:1009700068262030CE00D0016400143050028A1165
:100980000318C82C8A157026D00A8A11031DBC2CA6
:100990008630CE008A156826D001640008305002E7
:1009A0008A110318EF2C5008073C8A11031CE92C0C
:1009B0008A11DD24CE008A11E92C04308A00500807
:1009C00082074A344F34473420344D346F34643412
:1009D00065348A157026D00A8A11031DCD2CC430C7
:1009E000CE008A156826D00164000C3050028A11AE
:1009F00003181A2D50080B3C8A11031C142D8A1160
:100A00000425CE008A11142D05308A005008820773
:100A10005A34453452344F3420346F3472342034D5
:100A200045345834493454348A157026D00A8A1112
:100A3000031DF42CE630CE008A1568262230CE0045
:100A40008A1570268A15B62464008A11061E322D76
:100A500064008A11861E3B2D64008A11861D502D6C
:100A60008A01242D86100130C8020030031C013E8B
:100A7000C9028A113F2D8614C80A0319C90A6400E5
:100A80008A11061B462D64308A012E200530A000F5
:100A9000A10100308A0101208A15B6248A01242D83
:100AA00064008A11061BB928E830C8000330C90069
:100AB0008A15B6248A01242D0130CE008A156826B5
:100AC000C8308A012E20D0016400143050028A11EF
:100AD0000318922D5008133C8A11031C8C2D8A1187
:100AE0007425CE008A118C2D05308A0050088207AB
:100AF0004F345034543420344134753474346F34AA
:100B00004E346F3474346334683420345234653472
:100B1000763436342E3431348A157026D00A8A1150
:100B2000031D642DD430CE008A156826D0016400E0
:100B3000133050028A110318C42D5008123C8A1138
:100B4000031CBE2D8A11A725CE008A11BE2D0530AB
:100B50008A005008820750346F3477346534723419
:100B600020344F344E34203450347234653473346E
:100B7000733420345A34453452344F348A15702635
:100B8000D00A8A11031D972D64008A118619C42D7D
:100B9000C8308A012E20C030CE008A156826D001C8
:100BA0006400143050028A110318FE2D5008133CC3
:100BB0008A11031CF82D8A11E025CE008A11F82D28
:100BC00005308A00500882075A34653472346F3415
:100BD00069346E346734203465346C34653463347E
:100BE000743472346F34643465342E342E342E34BD
:100BF0008A157026D00A8A11031DD02D9430CE009C
:100C00008A156826D0016400143050028A11031836
:100C1000312E5008133C8A11031C2B2E8A111326E7
:100C2000CE008A112B2E06308A00500882075334DA
:100C30006534743420344434653470347434683426
:100C4000203443347534743420344434653470347F
:100C50007434683420348A157026D00A8A11031D32
:100C6000032ED430CE008A1568262030CE008A1597
:100C700070263030CE008A1570262E30CE008A15B0
:100C8000702630305907CE008A15702630305A074A
:100C9000CE008A15702630305807CE008A1570268F
:100CA0002230CE008A1570262030CE00D00164009C
:100CB0000D3050028A110318632E8A157026D00A4F
:100CC0008A11031D572E861405308A012E20061125
:100CD00086130230A3008A308A012F200530A0003D
:100CE000A10100308A01012064008A118519692E52
:100CF000C030CE008A1568268614E830C80003305C
:100D0000C900C030CE008A1568262030CE00D00140
:100D10006400143050028A110318942E8A1570262C
:100D2000D00A8A11031D882EDF30CE008A1568266E
:100D3000D0016400073050028A110318BA2E5008FF
:100D4000063C8A11031CB42E8A11A926CE008A11F2
:100D5000B42E06308A005008820777346134693433
:100D6000743469346E3467348A157026D00A8A1157
:100D7000031D992E64008A118619BA2E061122309D
:100D8000CE008A1570260508CC0018304C05DE0010
:100D900064005E08003C8A110319C32E64008A11A6
:100DA0008519E12E86100130C8020030031C013E77
:100DB000C9020530A000A10100308A0101208A117A
:100DC000F82E86100530A000A10100308A01012014
:100DD00086140530A000A10100308A010120C80A54
:100DE0000319C90A0530A000A10100308A010120C1
:100DF0004808BA004908BB004808A0004908A100FB
:100E00000330A300E8308A014E208A11031D102F01
:100E10004A084802BA004B08031C013E4902BB00C5
:100E20008A15B6243C08A0003D08A1004108A30093
:100E300040088A014E208A11031DC32E0330A300EF
:100E4000E8308A012F208A01B52C0130CE008A15A6
:100E500068268030CE008A156826D00164001430E0
:100E600050028A1103185C2F5008133C8A11031C8E
:100E7000562F8A113E27CE008A11562F07308A003E
:100E8000500882074F3450345434203445344434AD
:100E90004D34203445347834743465346E346434DD
:100EA0002034523465346134633468348A157026D2
:100EB000D00A8A11031D2E2FC230CE008A15682653
:100EC0004008A0004108A100A30100308A014B2086
:100ED0008A11031D992FD0016400113050028A112C
:100EE0000318972F5008103C8A11031C912F8A1168
:100EF0007C27CE008A11912F07308A005008820784
:100F0000313420342D342034533445345434203497
:100F100043345534543420344434453450345434F8
:100F200048348A157026D00A8A11031D6C2F8A1541
:100F30001128D00164000E3050028A110318C22F0C
:100F400050080D3C8A11031CBC2F8A11AA27CE0021
:100F50008A11BC2F07308A005008820731342034B0
:100F60002D342034443445345034543448342034FF
:100F70003D34203430342E348A157026D00A8A113C
:100F8000031D9A2F4008A0004108A1006430A20070
:100F9000A3018A016120D90030305907CE008A159B
:100FA00070265908A600A7016430A200A3018A0197
:100FB0007D20C6002508C70046084002C400470837
:100FC000031C013E4102C5004408A0004508A100E1
:100FD0000A30A200A3018A016120DA0030305A07EA
:100FE000CE008A1570265A08A600A7010A30A20072
:100FF000A3018A017D20C6002508C70046084402D7
:10100000C2004708031C013E4502C3004208D80045
:1010100030305807CE008A1570262230CE008A154F
:1010200070269630CE008A156826D00164000D30F7
:1010300050028A1503183D2850080C3C8A15031CE1
:1010400037288A152620CE008A15372808308A00CE
:1010500050088207323420342D3420344334553440
:10106000543420344E344F345434433448348A1585
:101070007026D00A8A15031D1628D630CE008A1590
:101080006826D0016400113050028A1503186D28BB
:101090005008103C8A15031C67288A155220CE0080
:1010A0008A15672808308A005008820733342034B4
:1010B0002D3420344A344F344734203445344C34B2
:1010C00045344334543452344F34443445348A150F
:1010D0007026D00A8A15031D4228C230CE008A1518
:1010E00068268A157C260130DC0064008A15861D7E
:1010F000C02864008A15861A912864008A15861E05
:101100007D28640003305C028A15031C89288A1537
:10111000A92864005C08023C8A150319B5288A15C1
:10112000AF2864008A15061A752864008A15061E01
:101130009528640002305C028A150318A1288A15DC
:10114000B52864005C08023C8A150319A9288A1591
:10115000AF280130DC00C230CE008A15B928023039
:10116000DC009630CE008A15B9280330DC00D6307A
:10117000CE008A156826C8308A012E208A15752867
:10118000C8308A012E208A15772664005C08033C4B
:101190008A150319C62964005C08023C8A150319E4
:1011A000902A0130CE008A156826D00164001030E4
:1011B00050028A150318002950080F3C8A15031C99
:1011C000FA288A15E620CE008A15FA2808308A0007
:1011D000500882072034203420345334653474346A
:1011E000203443345534543420344434453450345A
:1011F000543448348A157026D00A8A15031DD6281F
:10120000C430CE008A156826D00164000C3050022C
:101210008A1503182B2950080B3C8A15031C252915
:101220008A151521CE008A15252909308A00500813
:10123000820730342E343034303430342034693442
:101240006E3463346834653473348A157026D00A7A
:101250008A15031D0529C630CE008A1568268A1511
:101260007C260130DC00D30164008A1586195F29D1
:1012700064008A15861D3829C8308A012E20143052
:10128000CE008A156826640003305C028A15031CB0
:101290004D295308D5008A159429640002305C0258
:1012A0008A15031C5A295308D7000330DC00D301E8
:1012B0008A155F295308D6000230DC00D301640090
:1012C0008A15861A7029C8308A012E2064000130E0
:1012D00053028A15031881290A30D3008A158129FF
:1012E00064008A15061A3429C8308A012E20640049
:1012F000093053028A15031C8329FF30D3008A1555
:1013000083290230D302D30AC5305C07CE008A1588
:10131000682630305307CE008A1570261030CE0074
:101320008A1568268A1534298A1577260330A30082
:1013300020308A012F205608A600A7016430A200A1
:10134000A3018A017D20C2002508C3005708A6001A
:10135000A7010A30A200A3018A017D20C40025084C
:10136000C50042084407C60043080318013E45076C
:10137000C7005508C200C30146084207C00047081D
:101380000318013E4307C1008A01252F0130CE001A
:101390008A1568260330A300E8308A012F208613BF
:1013A0008030CE008A1568262030CE00D00164003F
:1013B000143050028A150318E3298A157026D00AC2
:1013C0008A15031DD7298630CE008A156826D001DC
:1013D0006400083050028A1503180F2A5008073C91
:1013E0008A15031C092A8A15F821CE008A15092AB4
:0813F0000A308A005008002AAF
:1014000082074A344F34473420344D346F346434C7
:1014100065348A157026D00A8A15031DE829C23062
:10142000CE008A156826D00164000F3050028A155C
:1014300003183D2A50080E3C8A15031C372A8A15CA
:101440002422CE008A15372A0A308A0050088207E3
:1014500044344934533450344C34413459342034B6
:101460006F347234203445345834493454348A1536
:101470007026D00A8A15031D142AE630CE008A157C
:1014800068262230CE008A1570268A15AE256400A3
:101490008A15061E552A64008A15861E672A64006E
:1014A0008A15861D882A8A15472A8610D10364006A
:1014B000023051028A150318742A6530D1000130B8
:1014C000C8020030031C013EC9028A15742A861422
:1014D000D10A6400C93051028A15031C742A653090
:1014E000D100C80A0319C90A64008A15061B7B2AA1
:1014F00001308A012E200530A000A10100308A01B0
:1015000001200130A1002C308A013C208A15472A95
:1015100064008A11061B252F8A15AE258A15472AD5
:101520000130CE008A1568260330A300E8308A0116
:101530002F20D0016400143050028A150318C82AE5
:101540005008133C8A15031CC22A8A15AA22CE0011
:101550008A15C22A0A308A00500882074F34503454
:10156000543420344134753474346F344E346F3411
:101570007434633468342034523465347634363409
:101580002E3434348A157026D00A8A15031D9A2AFF
:10159000D430CE008A156826D00164001330500282
:1015A0008A150318FA2A5008123C8A15031CF42ADB
:1015B0008A15DD22CE008A15F42A0A308A005008E6
:1015C000820750346F3477346534723420344F34AA
:1015D0004E342034503472346534733473342034D0
:1015E0005A34453452344F348A157026D00A8A153D
:1015F000031DCD2A64008A158619FA2A0330A30038
:1016000020308A012F20C030CE008A156826D001F4
:101610006400143050028A150318362B5008133C0E
:101620008A15031C302B8A151823CE008A15302BFF
:101630000B308A00500882075A34653472346F3494
:1016400069346E346734203465346C346534633403
:10165000743472346F34643465342E342E342E3442
:101660008A157026D00A8A15031D082B9430CE00E7
:101670008A156826D0016400143050028A150318B8
:10168000692B5008133C8A15031C632B8A154B23C6
:10169000CE008A15632B0B308A0050088207533422
:1016A00065347434203444346534703474346834AC
:1016B0002034433475347434203444346534703405
:1016C0007434683420348A157026D00A8A15031DB4
:1016D0003B2BD430CE008A1568262030CE008A15E8
:1016E00070263030CE008A1570262E30CE008A1536
:1016F000702630305907CE008A15702630305A07D0
:10170000CE008A15702630305807CE008A15702614
:101710002230CE008A1570262030CE00D001640021
:101720000D3050028A1503189B2B8A157026D00A9B
:101730008A15031D8F2B861405308A012E20061171
:10174000861332308A012E200530A000A10100301E
:101750008A01012064008A158519A12BC030CE00B2
:101760008A1568268614E830C8000330C900C030E6
:10177000CE008A1568262030CE00D00164001430D7
:1017800050028A150318CA2B8A157026D00A8A15AA
:10179000031DBE2BDF30CE008A156826D001640001
:1017A000073050028A150318F02B5008063C8A15A2
:1017B000031CEA2B8A15DF23CE008A15EA2B0B3097
:1017C0008A0050088207773461346934743469348C
:1017D0006E3467348A157026D00A8A15031DCF2B04
:1017E00064008A158619F02B0611E530CE008A15A3
:1017F00068262030CE008A1570262230CE008A1549
:1018000070260508CC0018304C05DE0064005E0828
:10181000003C8A150319012C64008A158519282CAF
:101820008610D1036400023051028A150318202C5F
:101830006530D1000130C8020030031C013EC902EE
:101840000530A000A10100308A0101208A15482C32
:1018500086100530A000A10100308A010120861405
:101860000530A000A10100308A010120D10A6400E6
:10187000C93051028A15031C422C6530D100C80AB8
:101880000319C90A0530A000A10100308A01012016
:1018900006308A012E204808BA004908BB004808D3
:1018A000A0004908A1000330A300E8308A014E20BF
:1018B0008A15031D632C4A084802BA004B08031C12
:1018C000013E4902BB0064008A1586196B2C8A15FB
:1018D000AE258A15A32C3A08A6003B08A7000430C1
:1018E000A200A3018A017D20C2002508C30042088E
:1018F000A0004308A1000A30A200A3018A016120D0
:10190000C4002108C5003A08A6003B08A70006301D
:10191000A200A3018A017D20C2002508C30042085D
:10192000A0004308A1006430A200A3018A01612045
:10193000C6002108C70044084607BC004508031834
:10194000013E4707BD003C08A0003D08A10041083A
:10195000A30040088A014E208A15031D012C033084
:10196000A300E8308A012F208A15D029DF30CE006D
:101970008A1568264808A0004908A1000330A30082
:10198000E8308A014E208A15031DD42C4A084802EB
:10199000BA004B08031C013E4902BB002030CE00B8
:1019A0008A1570268A15E02C48084A02BA004908B0
:1019B000031C013E4B02BB002D30CE008A15702661
:1019C0003030CE008A1570262E30CE008A15702653
:1019D0003A08A6003B08A7000830A200A3018A012C
:1019E0007D20C2002508C3004208A0004308A100D2
:1019F0000A30A200A3018A016120C4002108C500A9
:101A00003A08A6003B08A7000930A200A3018A01FA
:101A10007D20C2002508C3004208A0004308A100A1
:101A20006430A200A3018A016120C6002108C7001A
:101A300044084607BE0045080318013E4707BF009B
:101A40003A083E07BC003B080318013E3F07BD00B3
:101A50003C08A6003D08A7000A30A200A3018A01A5
:101A60007D20BC002508BD003C08A0003D08A10069
:101A70001030A2002730A3008A016120D30030304B
:101A80005307CE008A1570265308A600A701103010
:101A9000A2002730A3008A017D20C2002508C300D0
:101AA00042083C02C4004308031C013E3D02C5003D
:101AB0004408A0004508A100E830A2000330A300BC
:101AC0008A016120D40030305407CE008A15702678
:101AD0005408A600A701E830A2000330A3008A0141
:101AE0007D20C6002508C70046084402C2004708FA
:101AF000031C013E4502C3004208A0004308A100A8
:101B00006430A200A3018A016120D500303055075E
:101B1000CE008A1570265508A600A7016430A200E1
:101B2000A3018A017D20C6002508C700460842029D
:101B3000C4004708031C013E4302C5004408A0003E
:101B40004508A1000A30A200A3018A016120D70044
:101B500030305707CE008A1570260800DF30CE00DF
:101B60008A1568264808A0004908A1000330A30090
:101B7000E8308A014E208A15031DCC2D4A08480200
:101B8000BA004B08031C013E4902BB002030CE00C6
:101B90008A1570268A15D82D48084A02BA004908C5
:101BA000031C013E4B02BB002D30CE008A1570266F
:101BB0003030CE008A1570262E30CE008A15702661
:101BC0003A08A6003B08A7000430A200A3018A013E
:101BD0007D20C2002508C3004208A0004308A100E0
:101BE0000A30A200A3018A016120C4002108C500B7
:101BF0003A08A6003B08A7000630A200A3018A010C
:101C00007D20C2002508C3004208A0004308A100AF
:101C10006430A200A3018A016120C6002108C70028
:101C200044084607BE0045080318013E4707BF00A9
:101C30003E08BC003F08BD003C08A0003D08A100D4
:101C40006430A200A3018A016120D3003030530721
:101C5000CE008A1570265308A600A7016430A200A2
:101C6000A3018A017D20C2002508C30042083C026E
:101C7000C4004308031C013E3D02C5004408A00007
:101C80004508A1000A30A200A3018A016120D40006
:101C900030305407CE008A1570265408A600A701DC
:101CA0000A30A200A3018A017D20C6002508C700D2
:101CB00046084402C2004708031C013E4502C30017
:101CC0004208D50030305507CE008A15702608002E
:101CD0000130DB008A15842604308A012E2008009A
:101CE000DB018A15842604308A012E2008000C307E
:101CF000CE008A15682608000D30CE008A156826A9
:101D0000080063008A15812E5B08DD008B264E08D3
:101D1000DD008B2608008B128B1381016400831673
:101D20005830810083120830D200051081010B1158
:101D30000B1D982E0B11DD0D0510031805140B1D3E
:101D40009F2E0B11D20B9B2E05140B1DA52E0800E8
:101D50000515080005110800851408008510080005
:02400E00423F2F
:00000001FF
